:100E77002D20002B2000202564000000000000002A
:100E8700000000000020207869616E7A616977654B
:060E97006E64753A2000B4
:040FC3000208000020
:020FC800002205
:100F2300D3EF9400EE940040147D647C00ED1D70BB
:0D0F3300011CED4C70F7EF1F70E61E80E30F
:010F4000228E
:100F8300C2908F80D2A5120FC8C2A57F017E000236
:020F93000F232A
:100F9500D2908F80D2A5120FC8C2A57F017E000214
:020FA5000F2318
:100F4100C2917F38120F837F0C120F837F06120F1D
:060F5100837F01020F8303
:080E26008B3A8A3B893C8D3DAB
:100E2E00E4F53EE53EC3953D5017AB3AAA3BA93CCF
:100E3E00853E82758300120611FF120F95053E80C6
:010E4E00E2C1
:010E4F002280
:100EE500C2A27F647E00EF1F70011EEF4E70F7D225
:0E0EF500A27E007F04EF1F70011EEF4E70F70B
:010F030022CB
:100F570020A2FDA2A2B340FB7F047E00EF1F700119
:050F67001EEF4E70F7C3
:010F6C002262
:100E9D00C2A20FBF0000D2A20FBF00000FBF000003
:100EAD00A2A292007E007F08EF1F70011EEF4E7010
:030EBD00F7A20099
:010EC000220F
:100EC100E4FDFBFA120E9DE433FFC4333333548047
:100ED100FEEDC3134EFD0BBB00010AEB64084A7023
:030EE100E3AF0577
:010EE40022EB
:0F0D0E00120EE5120F577F017E00120F237FCCCC
:100D1D00E4FEEF139200EFC313FF30001BC2A20BD2
:100D2D00BB00000BBB0000D2A27A007B08EB1B704E
:100D3D00011AEB4A70F7801BC2A27A007B08EB1BED
:100D4D0070011AEB4A70F7D2A20BBB00010A0BBB64
:070D5D0000010A0EBE08BBF5
:010D6400226C
:080FB300120D0E7F44020D1D1A
:080FBB00120D0E7FBE020D1D98
:100CAD00120FBB120EC1A907120EC1EFFEE9FF8E86
:100CBD00088F09AC08AD09EC120206E4FBFA798045
:100CCD00783D1200FB8F368E358D348C33E4FFFE6C
:100CDD007DC87C42AB36AA35A934A8331200FBD3AC
:100CED00E5099400E50864809480E4FBFAF940047A
:100CFD00783F800278BF12000A12023F8E088F09DA
:010D0D0022C3
:040B58008E338F3415
:100B5C0078357C007D007BFF7A0E79817E007F05E5
:100B6C001205D2AF34AE33120FA7AB07AA067C27FF
:100B7C007D101206508F357C277D10AF03AE02120C
:100B8C0006507E037FE8CFCDCFCECCCE1206508F51
:100B9C00367C037DE8AF03AE021206507E007F6404
:100BAC00CFCDCFCECCCE1206508F377C007D64AF2C
:100BBC0003AE021206507E007F0ACFCDCFCECCCE34
:100BCC001206508F38AE02AF037C007D0A1206501D
:100BDC008D397FC3120F83C3E533648094807BFF10
:100BEC0050067A0E797780047A0E797A7D02120E8D
:100BFC0026E53560062430FF120F957B0174352BEA
:100C0C00F8E62430FF120F95BB02057F2E120F95CC
:040C1C000BBB05E920
:010C200022B1
:100F6D00758920758DFD758BFDD28ED29CC29FD259
:060F7D009ED2AFD2AC22AF
:060DF4008B338A348935BF
:100DFA00E4FFFE0FAB33AA34A9358F828E83120625
:100E0A0011F5993099FDC2990FBF00010EEF6406E2
:0B0E1A004E70E1850A993099FDC299E5
:010E250022AA
:040DB9008E338F34B2
:100DBD0078357C007D007BFF7A0E79867E007F067C
:100DCD001205D2AF34AE33120FA7753EFF753F0E2D
:100DDD0075407D8E418F427B007A00793512074533
:060DED007B007A0079355D
:010DF30022DD
:100F0400C3EF94C4EE648094894003C2A322D3EF58
:0F0F14009440EE648094865003C2A322D2A3229D
:100D650078227C007D007BFF7A0E798C7E007F11D6
:100D75001205D2120FB3120F41120F6D7F80120FA1
:100D8500837B007A0079227D10120E26D2A37FE89C
:100D95007E03120F237FC0120F83120CAD120B5866
:100DA500120CAD120F04120CAD120DB9120DF41286
:040DB5000FB380DA1E
:100003000202ABE86480F8E933E83360110460F07E
:10001300ED33EC337009E8FCE9FDEAFEEBFF220463
:1000230060DED3EB9FEA9EE99DE8C2E78CF0C2F75E
:1000330095F0400CE8CCF8E9CDF9EACEFAEBCFFB2A
:1000430012027685D0F05804700320D5B3E804700B
:10005300075002B2D50202B592D5EC0460F7E4CCA6
:10006300C0E0C398F8603B94186008400DD0E0FBF3
:1000730002028DE4FBFAC9FC8028E830E406E4C9F7
:10008300FBE4CAFCE830E305E4C9CACBFCE8540747
:100093006010F8C3E913F9EA13FAEB13FBEC13FC52
:1000A300D8F130F52FC3E49CFCEF9BFFEE9AFEEDF5
:1000B30099FDD0E0FBEF4E4D4C701222DB030202A0
:1000C300B2EC2CFCEF33FFEE33FEED33FDED30E706
:1000D300EB02028DEF2BFFEE3AFEED39FDD0E0FB94
:1000E30050130BBB00030202B5ED13FDEE13FEEF3D
:0800F30013FFEC13FC02028D67
:1000FB00EC4D6011E8497017ED33EC3304600DE4FF
:10010B00FCFFFEFD22E933E8330470F80202AB1268
:10011B00027658046009E4CC248150062850090269
:10012B0002B52840030202B2C0E0EB4A7044B9802A
:10013B0006D0E0FB0202A1EF4E701CBD8008EBFF66
:10014B00EAFEE9FD80EBE98DF0A4FEE5F00201E4A7
:10015B00E9CDF9EAFEEBFFEF89F0A4FCE5F0CE89DF
:10016B00F0A42EFFE435F0CD89F0A42DFEE435F09C
:10017B008067EF4E7005BD80D780C3EF8BF0A4ACCA
:10018B00F0EE8BF0A42CFCE435F0F8EF8AF0A42C05
:10019B00E5F038FCE433CB8DF0A42CFCE5F03BF818
:1001AB00EE8AF0A42CFCE5F038F8E433CF89F0A408
:1001BB002CFCE5F038CF3400CE89F0A42FFFE5F00E
:1001CB003EFEE433C98DF0A42EFEE5F039CD8AF066
:1001DB00A42FFFE5F03EFEE43DFD33D0E0FB5007DE
:1001EB000BBB000F0202B5EC2CFCEF33FFEE33FE22
:0601FB00ED33FD02028D50
:1002010075F020800E75F010800575F0087D007E78
:10021100007F003392D530D5031206A5EC33401090
:10022100EF33FFEE33FEED33FDEC33FCD5F0ED2281
:0E023100E5F0247EA2D513CC92E7CDCEFF22BD
:10023F00EDD2E7CD33EC3392D524814006E4FFFEB7
:10024F00FDFC22FCE4CFCECDCC24E0501174FF8016
:10025F00EDC3CC13CCCD13CDCE13CECF13CF0470B3
:07026F00F030D5DE0206A508
:1006E900E552243EF8E6055222783B300702783E6F
:1006F900E475F0011206B30205F82000EB7F2ED253
:10070900008018EF540F2490D43440D4FF30040BE8
:10071900EF24BFB41A0050032461FFE553600215AA
:10072900530556E5567002055530070D783BE475BB
:10073900F0011206B3EF02063E020E507403D2070F
:100749008003E4C207F5528B3B8A3C893DE4F553AB
:10075900F555F556E55360077F2012072480F57596
:1007690054FFC201C200C202C203C205C206C208C6
:100779001206F2FF700D3007057F00120735AF56DC
:10078900AE5522B4255FC2D5C2041206F2FF24D0A9
:10079900B40A00501A75F00A785330D50508B6FF27
:1007A9000106C6A426F620D5047002D20380D924F6
:1007B900CFB41A00EF5004C2E5D204020A22D201D2
:1007C90080C6D20080C0D20280BCD2D580BAD20500
:1007D90080B47F201207242002077401B55300401A
:1007E900F11206E9FF12072402075DD208D206803A
:1007F900951206E9FB1206E9FA1206E9F94A4B7065
:100809000679197A0B7BFF20022EE553602A7E00B8
:100819008E8275830012061160060EEE655470F023
:10082900C2D5EBC0E0EAC0E0E9C0E0EE120A82D02E
:10083900E0F9D0E0FAD0E0FB1205F8FF60AAEBC0BE
:10084900E0EAC0E0E9C0E0120724D0E02401F9D0D1
:10085900E03400FAD0E0FBE5540460DCD554D980DB
:1008690087D20280A2120A6560F7E554700104126A
:1008790002C0A954600DE554600914F554120B0C1B
:10088900EF60F3EA30E702F404C3995077EAF425FC
:10089900540430E701E404F554800D120A6560C17F
:1008A900EA055425541202C0EA7851F630E701E40A
:1008B900255404D5540420050114120A82E4C0E029
:1008C900120B0C7851E6601320E70714F612070C97
:1008D900802204F6D0E014C0E07F0012070CE55432
:1008E90060071207031554800B300503120703D064
:1008F900E002075DD0E00480C5120A6560A0E554F6
:10090900041202C07851EAF6E55420050260010498
:050919002404120A8213
:10091E0074FF04C0E0120B0C12070CE55420050204
:10092E006003120703D0E0B554E87F45120716782E
:10093E0051E67F2B30E7047F2DF404C0E01207242C
:10094E00D0E075F00A84C0F012070DD0E012070D4A
:10095E0002075D791080027908C206C2088008D2AB
:10096E00D5790A8004790AC2D5E554047002F5548B
:10097E00E4FAFDFEFF1206E9FC7B082001131206C5
:10098E00E9FD7B1030000A1206E9FE1206E9FF7B34
:10099E0020EC3382D592D55013C3E43000069FFF6E
:1009AE00E49EFEE42001039DFDE49CFCE4CBF8C232
:1009BE0001EC700CCFCECDCCE824F8F870F3801794
:1009CE00C3EF33FFEE33FEED33FDEC33FCEB33FBC5
:1009DE00994002FB0FD8E9EB300105F8D0E0C4488E
:1009EE00B201C0E00AEC4D4E4F78207B0070C2EA97
:1009FE00B5540040BCC0E0120A84D0F0D0E0200113
:100A0E0004C4C0E0C4B201C0F012070DD0F0D5F09E
:100A1E00EB02075D1206C307FA5309615807CB4C68
:100A2E0007C74209654F096D44096D4907E043093F
:100A3E00735508A446090245086E470B395007CF77
:100A4E002D07D32E07F62B07D72307F4200B222AC8
:100A5E00078F48000007EEE554B4FF0375540612E5
:100A6E0006E9FC1206E9FD1206E9FE1206E9FF7818
:100A7E004A0202EF790AA2D5200314300509B910F3
:100A8E00020404B9080104A2D52006025001042074
:100A9E0002689202B553005034C0E07F2030031933
:100AAE007F30A20272067205500F120ADBC202C21A
:100ABE0006C205C2087F30800F300503E9C0E01280
:100ACE000724300503D0E0F9D0E0B553CC3005173C
:100ADE007F30B9100C1207247F583004077F7880BE
:100AEE0003B908031207243002057F2D0207247F65
:100AFE00202008F87F2B2006F322920280CF7F0061
:100B0E00B407005005244AF8E6FF22286E756C6C77
:100B1E002900D2011206E93001F8C201785330D50E
:100B2E000108F602078F2D504349581206E9240397
:100B3E00B405004001E4900B3493120715743A1279
:0A0B4E000715D20375530402096174
:10027600E9D2E7C933E833F892D5EDD2E7CD33ECCE
:0702860033FC5002B2D52247
:10028D00EC30E7100FBF000C0EBE00080DBD0004D2
:10029D000BEB6014A2D5EB13FCED92E7FD2274FF7E
:1002AD00FCFDFEFF22E480F8A2D574FF13FC7D80D7
:0302BD00E480EFEB
:1002C000F920E72824F950037907E4F42402FB1805
:1002D000DBFDE624FB5014E9600DE4F618E604F6B5
:0F02E000B40A08E4F6D9F57401F60A22C2D52251
:1002EF00ED33EC3392D5FA602AB4FF33EDC2E77BDE
:1002FF00FF60067A037914E4227A03791D20D5046E
:10030F007A037918224E614E002B494E46002D4933
:10031F004E4600E47A08F608DAFC7B00740722E800
:10032F00C0E0ECC0E0EDC0E0EEC0E0EFC0E0EA7589
:10033F00F010A4CAABF075F04DA42BFBE435F0FC24
:10034F00EA2410FAEB34C5FBEC34D9FCEDC2E7FF1D
:10035F0075F056A4F42411C5F0F434C58FF0A42A17
:10036F00E5F03BE43CF620E7141204C2D0E0FFD0E6
:10037F00E0FED0E0FDD0E0FC1203F58014F404128F
:10038F0004C2D0E0FFD0E0FED0E0FDD0E0FC1200D0
:10039F00FBD0E0F8E6FAEDD2E7CD33EC332482FB65
:1003AF00E4C3CF33CFCE33CECD33CD33DBF37B07A7
:1003BF0075F00A846004F6081B0AE5F0F6088FF062
:1003CF00740AA4FFACF08EF0740AA42CFEACF050AB
:1003DF00010C8DF0740AA42CFDE435F0F608DBDE79
:0303EF007407226E
:1003F2000202B5EC5D046005E8590470030202AB29
:10040200120276580460F6EC4860F2EC7004FDFECD
:10041200FF22C860DB2481C85009C39860025006DD
:100422000202B29850CAF582E9294B4A7005AB82A2
:100432000202A175F0007C1A7880C3EF9BEE9AED60
:1004420099400DC3EF9BFFEE9AFEED99FDE842F055
:10045200DC23ACF0D0E0FFD0E0FED0E0FDAB8220A8
:10046200E7101BEB60BAEC2CFCEF33FFEE33FEED32
:1004720033FD02028DE803F830E705C0F075F000A5
:10048200EF2FFFEE33FEED33FD40B830E7C280AA16
:100492003F8000004120000042C80000447A000072
:1004A200461C400047C35000497424004B189680F4
:1004B2004CBEBC205A0E1BCA6753C21C749DC5AEEB
:1004C200FB60065407601C23231204F0EB543860CF
:1004D200091204DC1204EB1200FBECF8EDF9EEFA5F
:1004E200EFCB22EB1204EB80F1543803241C90046E
:1004F20092FE93FC0EEE93FD0EEE930ECE93FF2230
:03000000020C21CE
:0C0C2100787FE4F6D8FD758156020C685F
:10050200E709F608DFFA8046E709F208DFFA803EDB
:1005120088828C83E709F0A3DFFA8032E309F608C8
:10052200DFFA8078E309F208DFFA807088828C8330
:10053200E309F0A3DFFA806489828A83E0A3F608E4
:10054200DFFA805889828A83E0A3F208DFFA804CBE
:1005520080D280FA80C680D4806980F28033801095
:1005620080A680EA809A80A880DA80E280CA8033FE
:1005720089828A83ECFAE493A3C8C582C8CCC58376
:10058200CCF0A3C8C582C8CCC583CCDFE9DEE78046
:100592000D89828A83E493A3F608DFF9ECFAA9F0C5
:1005A200EDFB2289828A83ECFAE0A3C8C582C8CC1B
:1005B200C583CCF0A3C8C582C8CCC583CCDFEADE34
:1005C200E880DB89828A83E493A3F208DFF980CC96
:1005D20088F0EF60010E4E60C388F0ED2402B4048F
:1005E2000050B9F582EB2402B4040050AF23234536
:0605F20082239005527304
:1005F800BB010689828A83E0225002E722BBFE0201
:09060800E32289828A83E4932233
:10061100BB010CE58229F582E5833AF583E022509E
:1006210006E92582F8E622BBFE06E92582F8E222E8
:0D063100E58229F582E5833AF583E4932202
:10063E00BB010689828A83F0225002F722BBFE019B
:02064E00F32295
:10065000BC000BBE0029EF8DF084FFADF022E4CC8E
:10066000F875F008EF2FFFEE33FEEC33FCEE9DEC57
:10067000984005FCEE9DFE0FD5F0E9E4CEFD22ED9D
:10068000F8F5F0EE8420D21CFEADF075F008EF2FE7
:10069000FFED33FD4007985006D5F0F222C398FDD8
:0506A0000FD5F0EA2275
:0E06A500C3E49FFFE49EFEE49DFDE49CFC2266
:1006B300FAE6FB0808E6F925F0F618E6CA3AF62248
:1006C300D083D082F8E4937012740193700DA3A3C6
:1006D30093F8740193F5828883E4737402936860DA
:0606E300EFA3A3A380DFDA
:100E5000EFB40A07740D120E5B740A309811A8994A
:100E6000B8130CC2983098FDA899C298B811F63002
:070E700099FDC299F59922DA
:0C0FA700EE30E707C3E49FFFE49EFE224B
:100C2D00020D65E493A3F8E493A34003F68001F26B
:100C3D0008DFF48029E493A3F85407240CC8C333C8
:100C4D00C4540F4420C8834004F456800146F6DF97
:100C5D00E4800B0102040810204080900FC3E47E55
:100C6D00019360BCA3FF543F30E509541FFEE4938C
:100C7D00A360010ECF54C025E060A840B8E493A353
:100C8D00FAE493A3F8E493A3C8C582C8CAC583CA7E
:100C9D00F0A3C8C582C8CAC583CADFE9DEE780BE36
:010FC7000029
:00000001FF
