:10007000D1C7B2A9D6C7C4DCBFC6BCBC00B8D0D0FB
:10008000BBC4FAB5C4D1A1D4F1004253542D4D35AF
:100090003120D1A7CFB0B0E500D1A7CFB03531B472
:0A00A000D3D5E2C0EFBFAACABC002E
:0400D0007F057E002A
:0A00D400EF1FAC0670011E4C601215
:1000DE00E4F50EE50EC394FA50EC00000000050E98
:0200EE0080F19F
:0100F00022ED
:10014700C287D286D28500000000E580339200C2C4
:0301570085A2007E
:01015A002282
:1001110012014740FBC287C286C28500008F800062
:0C012100000000D28500000000C2852212
:10012D0012014740FBD287C286C2858F8000000036
:0A013D0000D28500000000C28522F8
:1000AA00D2847F341201111200D07F301201111252
:1000BA0000D07F0C1201111200D07F011201117FB2
:0600CA00057E000200D4D7
:100003007F0A7E001200D4C2A6C2A7D2B31200AAEE
:10001300E4FDFF1200F1E4FEEE90007093FF600632
:1000230012012D0E80F2E4FD7F011200F1E4FEEED9
:1000330090007D93FF600612012D0E80F2E4FD7F98
:10004300021200F1E4FEEE90008A93FF60061201B3
:100053002D0E80F2E4FD7F031200F1E4FEEE90002A
:0D0063009993FF600612012D0E80F280FEC1
:10015B00AD071FED600BE4FEEEC3940D50F20E8065
:01016B00F79C
:01016C002270
:1000F100EF70047F808013BF01047F90800CBF02EA
:10010100047F888005BF03027F98EF2DFF02011154
:0300000002016D8D
:0C016D00787FE4F6D8FD758120020003C5
:00000001FF
