:1007E5007365743A20202020202020722F73007218
:0E07F50065616C3A202020202020722F7300B6
:1006CD00043141A00000022D000A022B000002227D
:1006DD000000022900000227000002250032023727
:1006ED000000023C00000239003202350000022FEA
:0B06FD000000013B000124000121006F
:10070900C2918B807F017E0012071AD2A57F017EDC
:0107190000DF
:10071A00D3EF9400EE940040147D6E7C00ED1D70C2
:0D072A00011CED4C70F7EF1F70E61E80E320
:01073700229F
:10040900C3E526953DF523E525953CF522C3E5236E
:100419009528FDE5229527FCE41202C1AB34AA33E5
:10042900A932A831120116C004C005C006C007AC24
:1004390022AD23AE2DAF2E120394AC06AD07E41204
:1004490002C1D003D002D001D000120025C004C0DF
:1004590005C006C007E523252AFDE5223529FCE567
:100469002825E0FFE52733FEC3ED9FFFEC9EFEAC98
:100479002BAD2C120394AC06AD07E41202C1D003D4
:10048900D002D001D000120025E4FBFA7948784265
:1004990012021FC004C005C006C007AC2FAD30E46E
:1004A9001202C1D003D002D001D0001200251202DD
:1004B900FA8E2F8F3085272985282A85222785239B
:0804C90028852F3985303A2205
:1006760020B4077F057E0012071A20B422743225A3
:1006860026F526E43525F525753B01D3E52694B8F0
:10069600E525940B400975250B7526B8753B012099
:1006A600B5077F057E0012071A20B51A74CE2526D7
:1006B600F52674FF3525F525753B0145267004F5AD
:0706C60025F526753B01221A
:1007C700758921758CF8758A30758DFF758B9CD26C
:0E07D7008CD2A9D28ED2ABD2A8D288D2AF22B9
:0300030002000EEA
:0D000E00C0E00538E53870020537D0E0325B
:03000B0002060AE0
:10060A00C0E0C0F0C083C082C0D075D000C000C0B6
:0D061A0001C002C003C004C005C006C00737
:10062700C28C758CF8758A30D28C0521E521B432DD
:1006370023752100752401AE37AF387C007D0A127F
:100647000394EEC313F53CEF13F53D75370075388A
:040657000012040980
:10065B00D007D006D005D004D003D002D001D000F3
:0B066B00D0D0D082D083D0F0D0E0329D
:03001B00020826B2
:0D082600C0E00536E53670020535D0E03241
:1007A500C3E536953AE53595395004D2A08002C2A5
:1007B500A0D3E5369464E53594004005E4F535F5B8
:0207C5003622DA
:100803007580FFC290D29112070DE580339200C22A
:03081300A5A2009B
:0108160022BF
:0F081700AB0712080340FBC290120709C2A522CB
:100738007C037DE81203A67F647E00CFCDCFCECCAC
:08074800CE1203A6EF2430FFDE
:0F075000AB0712080340FBD290120709C2A52283
:10075F008B088A09890AAB08AA09A90A12037BFF29
:10076F0060101207507401250AF50AE43509F509DE
:03077F0080E422F1
:10078200D290D291C2A57F381208171207167F01A4
:100792001208171207167F0C1208171207167F0687
:0307A20002081733
:1004D1001207827BFF7A0779E512075F7FC0120856
:1004E100177BFF7A0779F412075F7F8612081712CC
:1004F10007C7120676E53B6401703BF53B7F861228
:100501000817AE25AF267C037DE8120749AE25AF5B
:1005110026120738AE25AF267C007D641203A67F24
:100521000A120741AE25AF267C007D0A1203A6ED13
:100531002430FF120750E5246401703B7FC6120886
:1005410017AE3CAF3D7C037DE8120749AE3CAF3DA1
:10055100120738AE3CAF3D7C007D641203A67E00DD
:100561007F0A120743AE3CAF3D7C007D0A1203A611
:0D057100ED2430FF1207501207A50204F31D
:10001E00020366E86480F8E933E83360110460F0A7
:10002E00ED33EC337009E8FCE9FDEAFEEBFF220448
:10003E0060DED3EB9FEA9EE99DE8C2E78CF0C2F743
:10004E0095F0400CE8CCF8E9CDF9EACEFAEBCFFB0F
:10005E0012033185D0F05804700320D5B3E8047034
:10006E00075002B2D502037092D5EC0460F7E4CCCF
:10007E00C0E0C398F8603B94186008400DD0E0FBD8
:10008E00020348E4FBFAC9FC8028E830E406E4C920
:10009E00FBE4CAFCE830E305E4C9CACBFCE854072C
:1000AE006010F8C3E913F9EA13FAEB13FBEC13FC37
:1000BE00D8F130F52FC3E49CFCEF9BFFEE9AFEEDDA
:1000CE0099FDD0E0FBEF4E4D4C701222DB03020384
:1000DE006DEC2CFCEF33FFEE33FEED33FDED30E730
:1000EE00EB020348EF2BFFEE3AFEED39FDD0E0FBBD
:1000FE0050130BBB0003020370ED13FDEE13FEEF66
:08010E0013FFEC13FC0203488F
:10011600EC4D6011E8497017ED33EC3304600DE4E3
:10012600FCFFFEFD22E933E8330470F80203661291
:10013600033158046009E4CC248150062850090292
:10014600037028400302036DC0E0EB4A7044B98097
:1001560006D0E0FB02035CEF4E701CBD8008EBFF8F
:10016600EAFEE9FD80EBE98DF0A4FEE5F00201FF71
:10017600E9CDF9EAFEEBFFEF89F0A4FCE5F0CE89C4
:10018600F0A42EFFE435F0CD89F0A42DFEE435F081
:100196008067EF4E7005BD80D780C3EF8BF0A4ACAF
:1001A600F0EE8BF0A42CFCE435F0F8EF8AF0A42CEA
:1001B600E5F038FCE433CB8DF0A42CFCE5F03BF8FD
:1001C600EE8AF0A42CFCE5F038F8E433CF89F0A4ED
:1001D6002CFCE5F038CF3400CE89F0A42FFFE5F0F3
:1001E6003EFEE433C98DF0A42EFEE5F039CD8AF04B
:1001F600A42FFFE5F03EFEE43DFD33D0E0FB5007C3
:100206000BBB000F020370EC2CFCEF33FFEE33FE4A
:06021600ED33FD02034878
:10021C00020370EC5D046005E85904700302036688
:10022C00120331580460F6EC4860F2EC7004FDFEE9
:10023C00FF22C860DB2481C85009C39860025006B5
:10024C0002036D9850CAF582E9294B4A7005AB82BE
:10025C0002035C75F0007C1A7880C3EF9BEE9AED7C
:10026C0099400DC3EF9BFFEE9AFEED99FDE842F02D
:10027C00DC23ACF0D0E0FFD0E0FED0E0FDAB822080
:10028C00E7101BEB60BAEC2CFCEF33FFEE33FEED0A
:10029C0033FD020348E803F830E705C0F075F000C1
:1002AC00EF2FFFEE33FEED33FD40B830E7C280AAEE
:1002BC0075F020800E75F010800575F0087D007EBD
:1002CC00007F003392D530D5031203FBEC33401082
:1002DC00EF33FFEE33FEED33FDEC33FCD5F0ED22C6
:0E02EC00E5F0247EA2D513CC92E7CDCEFF2202
:1002FA00EDD2E7CD33EC3392D524814006E4FFFEFC
:10030A00FDFC22FCE4CFCECDCC24E0501174FF805A
:10031A00EDC3CC13CCCD13CDCE13CECF13CF0470F7
:07032A00F030D5DE0203FBF9
:10033100E9D2E7C933E833F892D5EDD2E7CD33EC12
:0703410033FC5002B2D5228B
:10034800EC30E7100FBF000C0EBE00080DBD000416
:100358000BEB6014A2D5EB13FCED92E7FD2274FFC2
:10036800FCFDFEFF22E480F8A2D574FF13FC7D801B
:03037800E480EF2F
:0300000002057E78
:0C057E00787FE4F6D8FD75813D0205C5CC
:10037B00BB010689828A83E0225002E722BBFE0280
:09038B00E32289828A83E49322B3
:10039400EF8DF0A4A8F0CF8CF0A428CE8DF0A42E7D
:0203A400FE2237
:1003A600BC000BBE0029EF8DF084FFADF022E4CC3B
:1003B600F875F008EF2FFFEE33FEEC33FCEE9DEC04
:1003C600984005FCEE9DFE0FD5F0E9E4CEFD22ED4A
:1003D600F8F5F0EE8420D21CFEADF075F008EF2F94
:1003E600FFED33FD4007985006D5F0F222C398FD85
:0503F6000FD5F0EA2222
:0E03FB00C3E49FFFE49EFEE49DFDE49CFC2213
:10058A000204D1E493A3F8E493A34003F68001F2B2
:10059A0008DFF48029E493A3F85407240CC8C33372
:1005AA00C4540F4420C8834004F456800146F6DF41
:1005BA00E4800B01020408102040809006CDE47EFE
:1005CA00019360BCA3FF543F30E509541FFEE49336
:1005DA00A360010ECF54C025E060A840B8E493A3FD
:1005EA00FAE493A3F8E493A3C8C582C8CAC583CA28
:1005FA00F0A3C8C582C8CAC583CADFE9DEE780BEE0
:0107080000F0
:00000001FF
